:040000000C945B0001
:100004000C9400000C9400000C9400000C9400006C
:100014000C9400000C9400000C9400000C9400005C
:100024000C9400000C9400000C9400000C9400004C
:100034000C94FE000C9400000C9400000C9400003E
:100044000C9400000C9400000C9400000C94950097
:100054000C9400000C94C8000C9400000C94000054
:100064000C9400000C9400000C9400000C9400000C
:100074000C9400000C9400001027E80364000A00AC
:10008400010000100001100001000D0A53775665AD
:100094007273696F6E3A25642E25640D0A0001009F
:1000A4002D4E414E00494E46000001001002A200B0
:1000B4000000F894EE27EFBBF1E0F5BFE5BFF8E1EF
:1000C400A895A4B7A77FA4BFF0936000E093600055
:1000D4008DE0A2E0BB27ED938A95E9F780E094E0F8
:1000E400A0E0B1E0ED930197E9F7EEEAF0E0859145
:1000F4009591009761F0A591B59105901590BF0178
:10010400F00105900D920197E1F7FB01F0CFE0E0DB
:10011400EEBBEABDEBBDEFEFEDBFE4E0EEBFC0E048
:10012400D2E00C940401EA93FA93EFB7EA931A939A
:100134000A931091C0000091C600E12FEC7181F484
:10014400E32D3394F0E0E050FE4F0083E8E0E31544
:1001540009F433245394E8E0E51511F45524F09A96
:100164000991199126C01A935520F1F3E22D239495
:10017400F0E0E050FE4F1081E8E0E21509F422249B
:10018400F8945A947894E12F19910895EA93FA9384
:10019400EFB7EA93662069F06A94E72D7394F0E070
:1001A400E85FFD4FE081E093C600E8E0E71509F45D
:1001B4007724E991EFBFF991E9911895AA93E8E0C2
:1001C400E615E9F3F894662021F4E091C000E072AA
:1001D40069F4E42D4394F0E0E85FFD4FA881A08327
:1001E400E8E0E41509F44424639403C0E881E0934F
:1001F400C6007894219608955E9B02C05E9801C063
:100204005E9A18954CD078945E9AA8955520E1F0A2
:10021400AADF1E2F1F33A9F4EEE8F0E0FA93EA9365
:10022400E1E0F0E060E070E00E947F03E3E0F0E0F2
:1002340060E070E00E947F0388E00E94FC022A963E
:1002440003C0A12FAF5FBADF4D991DC0AEE1B0E08E
:100254000E9465034D9917C04D9902C0A895FCCF23
:10026400A0918900AC3439F40E943A03E3E1E093AD
:100274008900E0E106C00E943A03ECE4E0938900BF
:10028400E0E4E093880000E0033038F45C9A87E00F
:100294008A95F1F75C980F5FF7CFB7CFFFCFE0E80F
:1002A400E0936100E0E0E0936100E2B9E1B9E5B90F
:1002B400E4B9E8B9E7B9E0E2EBB9E0E5EAB9E0E0CE
:1002C400E4BDE5BDE6BDE7BDE8BDE0938000EDE03B
:1002D400E09381000E943A03E0E0E0938700E0931A
:1002E4008600ECE4E0938900E0E4E0938800E0E039
:1002F400E0938B00E0938A00E093B600E093B000B3
:10030400E093B100E093B200E093B300E093B40053
:10031400E0936900EDBBE0936800E0936E00E2E0D7
:10032400E0936F00E0E0E0937000E093C000E8ED3C
:10033400E093C100E6E0E093C200E0E0E093C50092
:10034400E1E8E093C400E0E0E093C900E0E8E0BF46
:10035400E0E0E0937B00E0937F00A895E8E1E09380
:100364006000E8E0E09360000895BA93AA93AA813C
:100374000E94E000A881B981ED91FD913196FE9330
:10038400EE9323960895BA93AA9326970E94840322
:1003940010E0AC85BD85E0E0F0E0ED93FC93EA89E4
:1003A400FB893196EA8BFB8B3197E4912E2FE03059
:1003B40011F40C94F402E12FE03039F4253211F4F5
:1003C40011E002C00E9440030CC1E130A9F42532BF
:1003D40019F40E94400304C112E040E000E02D3211
:1003E40011F401E0FEC02B3211F44BE2FAC02032CA
:1003F40011F440E2F6C002C0E23039F450E013E0F8
:10040400203311F40068EDC004C0E33011F00C9403
:10041400F302203310F02A3308F007C0AAE05A9FF1
:10042400502DE22FE0535E0FDCC0E22FE33649F497
:100434000E944703E889F989A481AA930E944D0385
:10044400CFC0E33741F40E9447030E9453030E9444
:1004540021031E2F0AC0E03761F40E9447030E9463
:1004640053030E942D031E2F086002600F7730E0B3
:1004740035C0E43611F0E93611F4046002C0E53702
:1004840031F4ECE7F0E0EE83FF8315E00DC0E835CE
:1004940011F4086004C0E83711F00C94F202E6E8A5
:1004A400F0E0EE83FF8314E002FF14C00E944703D0
:1004B4000E945D03AB85AA233AF4EA85FB850E947A
:1004C4007303EA87FB874DE2403011F01F5F01C0E0
:1004D4000B7F04C00E9447030E945D0300FD11C00E
:1004E400151778F407FF08C002FF04C00B7F242F00
:1004F400115001C020E301C020E20E94400351508A
:10050400EFCF312F01FF17C03030A1F003FF06C039
:10051400EE81FF812591EE83FF8305C0AE81BF810B
:100524002D91AE83BF830E944003503009F0515097
:100534003150EACF4BC020E3EE81FF810E947B0360
:10054400E887F987EE81FF813296EE83FF83E885A1
:10055400F985AA85BB85AE17BF0750F02F5FA88524
:10056400B985EA85FB85EA1BFB0BEA87FB87EFCF9E
:100574002A3328F003FF02C0295F01C0295D04FD6E
:100584001AC0213320F4A885B985119709F409C04C
:10059400531710F000FF01C013C020E207FF0BC087
:1005A40020E3006102FF07C00B7F4A930E944D03C2
:1005B400503009F051500E944003503009F051501E
:1005C4003150A885B985129708F0B5CF00FF08C04F
:1005D400503031F05150E0E2EA930E944D03F8CFDD
:1005E40010E0DDCEAC85BD850E9477030E948B03AD
:1005F40064960895FF92F82E26971A930A93DE01C3
:1006040014960E946F038D01E0E0EC83ED83EE838A
:10061400EF83DE0118960E946F030E947703FA931A
:10062400EA931A930A93E7EBF1E0FA93EA93DE0173
:100634001896A9DE198108812896FF900895BA9327
:10064400AA93A991B991EE27FF276D91662311F022
:100654003196FBCF0895BA93AA93AA27BB27E991B1
:10066400F9910590002011F01196FBCFFD0108953A
:10067400E0E0E0938500E093840008952A93AD853B
:10068400BE85EF85F88909950895E889F989349735
:10069400E88BF98B0895AD85BE85EF85F8890995BA
:1006A4000895A889B98914960E947703EE83FF837D
:1006B400AE81BF810895A889B98914960E947703F1
:1006C400EA87FB870895109639F088E893E101974B
:1006D400F1F7A8951197C9F708950024AF0DB01D3F
:1006E4000895F195E195F0400895ED91FC911197ED
:1006F40008950590F491E02D08957A936A93FA93FE
:10070400EA9308955A934A933A932A931A930A932D
:1007140008955D814C813B812A8119810881089566
:00000001FF
