:100000000C9472000C9400000C9400000C940000FE
:100010000C9400000C9400000C9400000C94000060
:100020000C9400000C9400000C9400000C94000050
:100030000C9400000C942A010C9400000C94000015
:100040000C9400000C9400000C9400000C94000030
:100050000C94DA000C9400000C94F7000C9400004F
:100060000C9400000C9400000C9400000C94000010
:100070000C9400000C9400000C9400001027E8037E
:1000800064000A0001000010000110000100256456
:100090002000526F737500416C6261737472750059
:1000A00056657264650047616C62656E004D6F76DF
:1000B000000001002D4E414E00494E460000050053
:1000C0000002920009000502970006000E02A0003F
:1000D00007001402A60004001B02AD0001002F025D
:1000E000B2000000F894EE27EFBBF1E0F5BFE5BFEA
:1000F000F8E1A895A4B7A77FA4BFF0936000E093B0
:1001000060008DE0A2E0BB27ED938A95E9F780E0DF
:1001100094E0A0E0B1E0ED930197E9F7EEEBF0E0B9
:1001200085919591009761F0A591B59105901590F5
:10013000BF01F00105900D920197E1F7FB01F0CFAF
:10014000E0E0EEBBEABDEBBDEFEFEDBFE4E0EEBFFC
:10015000C0E0D2E00C948D0147D35C984AD378C0BC
:1001600043D35C9A46D374C0AAE0B0E0E7D3A8E3D7
:10017000F3DFAEE0F1DFA1E0EFDFAAE0B0E0DED335
:10018000A6E0EADF0895BA93AA93A881B981AC9159
:10019000A13044F0A881B981ED91A883B983AE2F35
:1001A000DFDFF3CF0C94F203A1E0D6DFA4E6B0E0EA
:1001B000C5D3089528D31A930A931091C0000091D3
:1001C000C600E12FEC7181F4E32D3394F0E0E15EA1
:1001D000FD4F0083E8E0E31509F433245394E8E08D
:1001E000E51511F45524F09A0991199110C00BD31B
:1001F000662069F06A94E72D7394F0E0E95DFD4FA5
:10020000E081E093C600E8E0E71509F47724E9917E
:10021000EFBFF991E9911895AA93E8E0E615E9F3A3
:10022000F894662021F4E091C000E07269F4E42DB6
:100230004394F0E0E95DFD4FA881A083E8E0E41578
:1002400009F44424639403C0E881E093C6007894E1
:10025000219608955E9B02C05E9801C05E9A189533
:10026000E0E6E0937C00E7E8E0937A00E0917A0032
:10027000E064E0937A00A0917A00A03CE1F3089555
:10028000BA93AA9301D300E010E0EC81FD81EE0F58
:10029000FF1FDF019FD29F01E3DFE0917900F0E0D3
:1002A000DF0179D2EEE8F0E0FA93EA93E091790089
:1002B000FF27662777273DD384E02DD2269600E0DE
:1002C00010E0EC81FD810E171F0704F522976AD21A
:1002D0000F01AA85BB85E885F985EA1BFB0B3196E2
:1002E000D00115D3AA85BB85EA0FFB1FE883F983EC
:1002F000F801D901EE0FFF1FEA0FFB1FA881B9819A
:10030000A083B18322960F5F1F4FDBCFF901C3D2C9
:100310002A9608957DD20C94F203229700E010E013
:1003200023E030E040E050E0A3E0B0E034D256D02B
:100330007894EFEFEAB9E0E0EBB9EFEFE4B9E0E091
:10034000E5B9EFEFE2B910DF2FDFE0E0F0E0FA937C
:10035000EA93E4E0F0E0FA93EA93D90191DFE883CD
:10036000F98300E010E00217130774F556D2E1306C
:10037000A0E0FA0719F4A0E0B2E01EC0E230A0E06D
:10038000FA0719F4A5E0B2E017C0E330A0E0FA07DD
:1003900019F4AEE0B2E010C0E430A0E0FA0719F4BE
:1003A000A4E1B2E009C0309719F4ABE1B2E004C0B7
:1003B00034D2DF01AFDFDF01E6DEA8EEB3E0BED26C
:1003C000F3DE0F5F1F4FCFCFA8E8B3E1B7D22F5FA7
:1003D0003F4FA881B98100D2B8CFFFCFE0E8E093CA
:1003E0006100E0E0E0936100E2B9E1B9E5B9E4B9A8
:1003F000E8B9E7B9E0E2EBB9E0E5EAB9E0E0E4BD8D
:10040000E5BDE6BDE7BDE8BDE0938000EDE0E0932B
:100410008100E0E0E0938500E0938400E0938700B2
:10042000E0938600ECE4E0938900E0E4E093880048
:10043000E0E0E0938B00E0938A00E093B600E09365
:10044000B000E093B100E093B200E093B300E0931A
:10045000B400E0936900EDBBE0936800E0936E00A8
:10046000E2E0E0936F00E0E0E0937000E093C00012
:10047000E8EDE093C100E6E0E093C200E0E0E09345
:10048000C500E1E8E093C400E0E0E093C900E0E8E3
:10049000E0BFE0E0E0937B00E0937F00A895E8E117
:1004A000E0936000E8E0E09360000895BA93AA93B7
:1004B000AA81B2DEA881B981ED91FD913196FE93BA
:1004C000EE9323960895BA93AA932697DBD110E072
:1004D000AC85BD85E0E0F0E0ED93FC93EA89FB8913
:1004E0003196EA8BFB8B3197E4912E2FE03009F4A3
:1004F0000BC1E12FE03031F4253211F411E001C0DD
:1005000096D101C1E130A1F4253211F490D1FAC0A5
:1005100012E040E000E02D3211F401E0F4C02B3293
:1005200011F44BE2F0C0203211F440E2ECC002C002
:10053000E23039F450E013E0203311F40068E3C0F6
:1005400003C0E33009F0DFC0203310F02A3308F095
:1005500007C0AAE05A9F502DE22FE0535E0FD3C090
:10056000E22FE33639F46AD1E889F989A481AA93A4
:100570006BD1C8C0E33729F461D16CD1F3D01E2F01
:1005800007C0E03749F45AD165D1F8D01E2F086072
:1005900002600F7730E03AC0E43611F0E93611F42A
:1005A000046002C0E53731F4ECE7F0E0EE83FF834E
:1005B00015E00CC0E83511F4086003C0E83709F015
:1005C000A1C0E6E8F0E0EE83FF8314E002FF15C06F
:1005D00035D1A889B9891496ED91FD91EA87FB87F9
:1005E000AB85AA2322F45CD1EA87FB874DE2403039
:1005F00011F01F5F01C00B7F09C020D1A889B98904
:100600001496ED91FC911197EA87FB8700FD10C0CD
:10061000151770F407FF08C002FF04C00B7F242FDA
:10062000115001C020E301C020E201D15150F0CFB0
:10063000312F01FF16C0303099F003FF06C0EE8164
:10064000FF812591EE83FF8305C0AE81BF812D918F
:10065000AE83BF83ECD0503009F051503150EBCF16
:1006600048C020E3EE81FF8160D1E887F987EE8101
:10067000FF813296EE83FF83E885F985AA85BB85E5
:10068000AE17BF0750F02F5FA885B985EA85FB85B7
:10069000EA1BFB0BEA87FB87EFCF2A3328F003FF27
:1006A00002C0295F01C0295D04FD19C0213320F477
:1006B000A885B985119709F409C0531710F000FFF8
:1006C00001C011C020E207FF0AC020E3006102FF61
:1006D00006C00B7F4A93B8D0503009F05150A7D0D4
:1006E000503009F051503150A885B985129708F063
:1006F000B8CF00FF07C0503029F05150E0E2EA9334
:10070000A3D0F9CF10E0EACEAC85BD85ED91FD9187
:10071000C0D064960895FF92F82E26971A930A93F4
:10072000DE0114960024AF0DB01D8D01E0E0EC83D6
:10073000ED83EE83EF83DE0118960024AF0DB01D2C
:10074000ED91FD91FA93EA931A930A93E6E5F2E0AC
:10075000FA93EA93DE011896B6DE1981088128968D
:10076000FF900895BA93AA93A991B991EE27FF2714
:100770006D91662311F03196FBCF0895BA93AA9339
:10078000AA27BB27E991F9910590002011F0119655
:10079000FBCFFD0108953CD06F2F660F660B762FBF
:1007A00063D020C0E0912F02F091300260913102BD
:1007B00070913202ADE6BEE486EC91E475D0EE595C
:1007C000F8486F4F7F4F50D0FB01FF77089555D009
:1007D0002496089552D006C01BD0FA93EA93A0E065
:1007E000B0E0F5DF22960895AA93E881E5B95D9817
:1007F00008955E9A8DE08A95F1F75E9884EF91E016
:100800000197F1F70895EA93FA93EFB7EA93089501
:10081000BA93AA93E881F9810895F801A881B98172
:10082000EE0FFF1FAE0FBF1FED91FD9108952A93AC
:10083000AD85BE85EF85F88909950895E889F98920
:100840003497E88BF98B0895AD85BE85EF85F889DF
:1008500009950895A889B9891496ED91FD91EE83C3
:10086000FF83AE81BF810895E0932F02F0933002A1
:1008700060933102709332020895BA93AA93E0E034
:10088000F0E008955A934A933A932A931A930A935D
:1008900008955D814C813B812A81198108810895E9
:1008A000F195E195F04008957A9F702D6B9F700D42
:1008B000F89F700DE99F700D6A9F602D710DFB9F71
:1008C000600D711DE89F600D711D8827FA9FF02D46
:1008D000610D781FEB9FF00D611D781FEA9FE02DE1
:1008E000F10D681F781F08950024112490E1AA0FCC
:1008F000BB1F001C111C0E1A1F0A18F40E0E1F1E1F
:1009000001C0A1609A9599F7FD01D0010895E8947E
:10091000B7FF04C0B195A195B0406894F7FDC0DF62
:10092000E3DFFD010EF4BCDF08950590F491E02DA6
:1009300008957A936A93FA93EA930895109639F09A
:10094000A89588E893E10197F1F71197C9F7089501
:00000001FF
