:0E0000000C9472000C9400000C9400000C9400
:10000E0000000C9400000C9400000C9400000C9462
:10001E0000000C9400000C9400000C9400000C9452
:10002E0000000C9400000C9414010C9400000C942D
:10003E0000000C9400000C9400000C9400000C9432
:10004E0000000C94E2000C9400000C94FF000C9441
:10005E0000000C9400000C9400000C9400000C9412
:10006E0000000C9400000C9400000C94000010276B
:10007E00E80364000A0001000010000110000100F6
:10008E0025642000526F737500416C626173747247
:10009E00750056657264650047616C62656E004D51
:1000AE006F76000001002D4E414E00494E46000075
:1000BE0005000002920009000502970006000E02DC
:1000CE00A00007001402A60004001B02AD000100F0
:1000DE002F02B2000000F894EE27EFBBF1E0F5BF5F
:1000EE00E5BFF8E1A895A4B7A77FA4BFF093600081
:1000FE00E09360008DE0A2E0BB27ED938A95E9F7CF
:10010E0080E094E0A0E0B1E0ED930197E9F7EEEB2B
:10011E00F0E085919591009761F0A591B5910590CC
:10012E001590BF01F00105900D920197E1F7FB01CB
:10013E00F0CFE0E0EEBBEABDEBBDEFEFEDBFE4E0EC
:10014E00EEBFC0E0D2E00C9454019AD15C9802C08C
:10015E0097D15C9A5E9A8DE08A95F1F75E9884EF5E
:10016E0091E00197F1F721960895AAE0B0E0FED153
:10017E00A8E3EBDFAEE0E9DFA1E0E7DFAAE0B0E065
:10018E00F5D1A6E0E2DF0895BA93AA93A881B981CA
:10019E00AC91A13044F0A881B981ED91A883B983C7
:1001AE00AE2FD6DFF3CF0C944502A1E0CEDFA4E64E
:1001BE00B0E0DCD1089569D11A930A931091C00072
:1001CE000091C600E12FEC7181F4E32D3394F0E041
:1001DE00E15EFD4F0083E8E0E31509F43324539408
:1001EE00E8E0E51511F45524F09A0991199110C023
:1001FE004CD1662069F06A94E72D7394F0E0E95DC6
:10020E00FD4FE081E093C600E8E0E71509F477249E
:10021E00E991EFBFF991E99118955E9B02C05E9846
:10022E0001C05E9A1895BA93AA9351D100E010E0DE
:10023E00EC81FD81EE0FFF1FDF0118D19F0100E061
:10024E0010E0EC81FD810E171F0704F52297F6D002
:10025E000F01AA85BB85E885F985EA1BFB0B319654
:10026E00D00176D1AA85BB85EA0FFB1FE883F983FF
:10027E00F801D901EE0FFF1FEA0FFB1FA881B9810C
:10028E00A083B18322960F5F1F4FDBCFF90124D1DC
:10029E002A960895FFD00C944502229700E010E0B4
:1002AE0023E030E040E050E0A3E0B0E0C0D057D013
:1002BE007894EFEFEAB9E0E0EBB9EFEFE4B9E0E004
:1002CE00E5B953DF72DFA8EEB3E050D1E0E0F0E025
:1002DE00FA93EA93E4E0F0E0FA93EA93D901A3DF0C
:1002EE00E883F98300E010E00217130774F5D7D006
:1002FE00E130A0E0FA0719F4A0E0B2E01EC0E2304F
:10030E00A0E0FA0719F4A5E0B2E017C0E330A0E0D0
:10031E00FA0719F4AEE0B2E010C0E430A0E0FA073C
:10032E0019F4A4E1B2E009C0309719F4ABE1B2E0E0
:10033E0004C0B5D0DF01AEDFDF0126DFA8EEB3E0EB
:10034E0015D133DF0F5F1F4FCFCFA8E8B3E10ED12A
:10035E002F5F3F4FA881B9818BD0B8CFFFCFE0E898
:10036E00E0936100E0E0E0936100E2B9E1B9E5B944
:10037E00E4B9E8B9E7B9E0E2EBB9E0E5EAB9E0E003
:10038E00E4BDE5BDE6BDE7BDE8BDE0938000EDE070
:10039E00E0938100E0E0E0938500E0938400E09339
:1003AE008700E0938600ECE4E0938900E0E4E093BC
:1003BE008800E0E0E0938B00E0938A00E093B600C3
:1003CE00E093B000E093B100E093B200E093B3008D
:1003DE00E093B400E0936900EDBBE0936800E09316
:1003EE006E00E2E0E0936F00E0E0E0937000E093D7
:1003FE00C000E8EDE093C100E6E0E093C200E0E06B
:10040E00E093C500E1E8E093C400E0E0E093C900AA
:10041E00E0E8E0BFE0E0E0937B00E0937F00A8958A
:10042E00E8E1E0936000E8E0E0936000089532D0E8
:10043E006F2F660F660B762F3CD020C0E0912F02F7
:10044E00F09130026091310270913202ADE6BEE45D
:10045E0086EC91E44AD0EE59F8486F4F7F4F29D081
:10046E00FB01FF7708952ED0249608952BD006C059
:10047E0011D0FA93EA93A0E0B0E0F5DF229608954A
:10048E00AA93E881E5B95D980895EA93FA93EFB7D8
:10049E00EA930895BA93AA93E881F9810895F80131
:1004AE00A881B981EE0FFF1FAE0FBF1FED91FD9119
:1004BE000895E0932F02F09330026093310270930F
:1004CE0032020895BA93AA93E0E0F0E008953A93C9
:1004DE002A931A930A9308953B812A8119810881E0
:1004EE000895F195E195F04008957A9F702D6B9FD8
:1004FE00700DF89F700DE99F700D6A9F602D710D44
:10050E00FB9F600D711DE89F600D711D8827FA9F7E
:10051E00F02D610D781FEB9FF00D611D781FEA9F86
:10052E00E02DF10D681F781F08950024112490E12D
:10053E00AA0FBB1F001C111C0E1A1F0A18F40E0E58
:10054E001F1E01C0A1609A9599F7FD01D001089573
:10055E00E894B7FF04C0B195A195B0406894F7FD3B
:10056E00C0DFE3DFFD010EF4BCDF0895109639F015
:10057E00A89588E893E10197F1F71197C9F70895C7
:00000001FF
